:020000040800F2
:1000000078250020211F00087103000873030008F1
:100010007D030008890300088D030008000000002C
:100020000000000000000000000000009103000834
:1000300093030008000000009503000897030008E0
:100040003B1F00083B1F00083B1F00083B1F000828
:100050003B1F00083B1F00083B1F00083B1F000818
:100060003B1F00083B1F00083B1F00083B1F000808
:100070003B1F00083B1F00083B1F00083B1F0008F8
:100080003B1F00083B1F00083B1F00083B1F0008E8
:100090003B1F00083B1F00083B1F00083B1F0008D8
:1000A0003B1F00083B1F00083B1F00083B1F0008C8
:1000B0003B1F00083B1F00083B1F00083B1F0008B8
:1000C0003B1F00083B1F00083B1F00083B1F0008A8
:1000D0003B1F0008011F00083B1F00083B1F0008D2
:1000E0003B1F00083B1F00083B1F00083B1F000888
:1000F0003B1F00083B1F00083B1F00083B1F000878
:100100003B1F0008810300083B1F00083B1F00083D
:100110003B1F00083B1F00083B1F00083B1F000857
:100120003B1F00083B1F00083B1F00083B1F000847
:10013000DFF80CD004F030FE004800475101000801
:100140007825002030BF72B662B680F30888704709
:10015000ADF5825D002701210DF58050C1634FF0A0
:100160000008002401F06EFE00F0EDFA01F000FE40
:100170004FF4E13001F07BFE00F008FA01F0C6F820
:100180005649087056A004F019FE5949002004F0A1
:10019000A0F958490870012257A15A4804F0ACF957
:1001A0005449087008460078002869D155E041F2AA
:1001B0003C036B444FF400620DF63C01514804F0DF
:1001C00051FA4C4908700846007800283FD10DF5D7
:1001D0008050C06B00F0010028B90DF58050C06B55
:1001E000C0F34F0805E00DF58050C06B401CC0F314
:1001F0004F08454901EBC4204A140DF63C0100F0BC
:1002000006FA414901EBC4204A140FA900F0EEF9A7
:1002100000251AE00DF63C0030F815000FA931F862
:10022000151088420FD039A004F0C8FD364901EB03
:10023000C42002F0DDFC344901EBC4204A140DF661
:100240003C0100F0E4F9681C85B24545E2DB0DF5A0
:100250008050C06B0744601C84B22A48C068B84212
:10026000A5D82948406800F07F40B0F1006F03D165
:10027000254803F07CF917E02BA004F09FFD13E064
:100280002148406800F07F40B0F1006F03D11E4864
:1002900003F06DF902E024A004F090FD29A004F021
:1002A0008DFD2DA004F08AFD164804F02FFC0021DE
:1002B000084604F00EF90FE0701CC6B20A2001F0E7
:1002C00094FD1E2E08D12948006808B9012000E0DD
:1002D0000020264908600026EEE700000C00002000
:1002E0004941502074657374202E2E2E0D0A000093
:1002F00084020020000000202F6170702E62696E61
:1003000000000000600000200000010872656164C8
:1003100020213D2077726974652C2072657772699F
:1003200074652121200D0A00B7C7464C415348D3BC
:10033000A6D3C3B3CCD0F22CCEDEB7A8D6B4D0D0DF
:10034000210D0A00666F70656E206661696C7572BA
:10035000652121200D0A00006A756D7020746F20E0
:100360006170702121200D0A0000000080012142EF
:10037000704709A004F022FD00BFFEE700BFFEE7C2
:1003800010B501F0BFFC10BD00BFFEE700BFFEE7E7
:100390007047704770477047456E7465722068619A
:1003A0007264206661756C74210A00000CB500202F
:1003B000019000906C48006840F480306A49086001
:1003C00000BF6948006800F4003000900198401CAC
:1003D0000190009818B90198B0F5A06FF1D162486A
:1003E000006800F4003010B10120009001E000200E
:1003F00000900098012843D15C48006840F010004C
:100400005A4908600846006820F003000860084662
:10041000006840F002000860534840685249486054
:100420000846406848600846406840F4806048607C
:100430000846406820F47C1048600846406840F454
:10044000E81048600846006840F08070086000BF0F
:100450004548006800F000700028F9D04248406824
:1004600020F00300404948600846406840F0020020
:10047000486000BF3C48406800F00C000828F9D1F3
:100480000CBD10B5FFF792FF10BD10B536480068DF
:1004900040F001003449086008464068344908408B
:1004A0003149486008460068324908402E490860D2
:1004B0000846006820F4802008600846406820F460
:1004C000FE0048604FF41F008860FFF7DAFF4FF02E
:1004D00000602949086010BD10B5002100200022ED
:1004E000214B5B6803F00C0121B1042906D00829D7
:1004F00028D107E0214B224C236027E01F4B204CE2
:10050000236023E0184B5B6803F47010164B5B68A4
:1005100003F48032022303EB904022B9194B43438A
:10052000174C23600DE0104B5B6803F4003323B1DC
:10053000144B4343124C236003E0104B4343104CD5
:10054000236003E00D4B0E4C236000BF00BF064B41
:100550005B68C3F303130C4CE15C094B1B68CB4095
:10056000074C236010BD0000001002400020024034
:100570000000FFF8FFFFF6FE08ED00E000127A0031
:100580001000002000093D001400002008B50121E2
:10059000042001F0F3FF0120ADF8000010208DF8D9
:1005A000030003208DF802006946044801F02AFD8B
:1005B0000121024801F0D3FD08BD00000008014000
:1005C0000146088870472DE9F04105460E4617465A
:1005D000002407E036F81410284602F00CFCAD1C8D
:1005E000601C84B2BC42F5DBBDE8F08130B5034647
:1005F0000C461546002207E01846FFF7E1FF24F8F5
:1006000012009B1C501C82B2AA42F5DB30BD2DE9C2
:10061000F05F80468A461746B8F1006F02D337482C
:10062000804501D3BDE8F09F02F09DFAA8F1006B70
:100630004FEADB25CBF34909C9F58064A74200DC0A
:100640003C464DE04FF0006101EBC5204A142C49B7
:10065000FFF7CCFF00260BE009EB0600284931F834
:1006600010004FF6FF71884200D003E0701C86B284
:10067000A642F1DB00BFA6421BDA4FF0006101EB9E
:10068000C52002F0B5FA002608E03AF8160006EB9D
:1006900009011B4A22F81100701C86B2A642F4DB45
:1006A0004FF0006101EBC5204A141549FFF78BFF9D
:1006B00004E0224651464046FFF785FFA74200D19D
:1006C0000FE06D1C4FF000090AEB440AA044381BF0
:1006D00087B2B7F5806F02DD4FF4806400E03C46DE
:1006E000B0E700BF02F04BFA00BF9BE713B504462A
:1006F000012201A92046FFF78AFF1CBD0000040863
:10070000B404002008B5002002F041FE002002F0F1
:1007100041FE02F011FE00214FF4806001F021FF44
:100720004FF48850ADF8000004208DF803006946AE
:10073000FC4801F067FC0420ADF800006946FA4867
:1007400001F060FC08BD08B54FF4C06002F07EF90E
:1007500031208DF8000000208DF801008DF8020096
:1007600001208DF80300684602F075F908BD10B548
:10077000EE4802F09FFD10BD30B58BB005460C462B
:10078000EB4802F0ABFD0021EA4802F078FDEA48B0
:100790000090019500200290A00803900020049092
:1007A000802005908000069080000790002008902F
:1007B0004FF40050099000200A906946DD4802F08D
:1007C00033FD0121DB4802F05AFD0BB030BD30B5DE
:1007D0008BB005460C46D64802F080FD0021D54876
:1007E00002F04DFDD4480090019510200290A00821
:1007F00003900020049080200590800006908000E7
:100800000790002008904FF40050099000200A90B3
:100810006946C84802F008FD0121C64802F02FFDD4
:100820000BB030BD08B50121302001F0A7FE4FF418
:100830008850ADF8000003208DF8020018208DF8D4
:1008400003006946B74801F0DDFB0420ADF8000065
:100850006946B54801F0D6FB0121880201F081FE0E
:100860000121022001F07DFE08BD014600BFB24813
:100870008038406B00F045000028F8D040F2FF506F
:10088000AD4A803A90631046406908221040C0B2D9
:1008900070472DE9FC4107460D4600260024002044
:1008A000009001900820A549086010204860402071
:1008B00088600020C8604FF480600861084602F03C
:1008C00089FD1020FFF7D1FF044614B12046BDE892
:1008D000FC819B48008800049849086037204860E4
:1008E000402088600020C8604FF48060086108469E
:1008F00002F070FD3720FFF7B8FF04460CB1204628
:10090000E5E74FF0FF308F4908600820486030204D
:1009100088600220C8600020086101204861084604
:1009200002F081FD002085490860332048604020A6
:1009300088600020C8604FF480600861084602F0BB
:1009400049FD3320FFF791FF04460CB12046BEE776
:100950000CE04FF4001002F0B4FD38B102F085FD58
:100960004DF82600761C012E00D907E07248803829
:10097000406B40F22A6108400028EAD000BF0820FE
:1009800002F09FFD28B1082002F0A5FD04242046B6
:100990009DE7022002F095FD28B1022002F09BFDA8
:1009A0000224204693E7202002F08BFD28B120206E
:1009B00002F091FD0624204689E74FF4007002F012
:1009C00080FD30B14FF4007002F085FD0724204611
:1009D0007DE740F2FF5002F07EFD0098000600998E
:1009E00001F47F4140EA0120009901F47F0140EACF
:1009F0001120009940EA1160686001980006019991
:100A000001F47F4140EA0120019901F47F0140EAAD
:100A10001120019940EA11602860204657E77CB513
:100A20000546002400200090019002F0F1FC00F047
:100A3000007010B10E2420467CBD4149098888B25F
:100A40006946FFF726FF04460CB12046F4E7012D66
:100A500036D1019800F4802000282ED03848008834
:100A60000004364908603720486040208860002034
:100A7000C860A8020861084602F0ACFC3720FFF706
:100A8000F4FE04460CB12046D6E702202B4908604C
:100A900006204860402088600020C8604FF48060D5
:100AA0000861084602F096FC0620FFF7DEFE0446C9
:100AB0000CB12046C0E72046BEE725242046BBE710
:100AC000019800F48030F8B31D48008800041B49E9
:100AD000086037204860402088600020C8604FF4DC
:100AE00080600861084602F075FC3720FFF7BDFE04
:100AF00004460CB120469FE70020104908600620FC
:100B00004860402088600020C8604FF48060086121
:100B1000084602F05FFC0620FFF7A7FE0446A4B1DA
:100B2000204689E700100140001401400020001019
:100B300000F0001044040240808001404C0D002071
:100B400028000020600D002001E0204674E72524E5
:100B5000204671E770B504460025FB48006803286D
:100B600002D12725284670BDF748006838B1F648FD
:100B70000068012803D0F448006802282ED1B4F59B
:100B8000805F02D127252846EDE7B4F5006F14D128
:100B90000120FFF744FF054605BB0220EB4908751D
:100BA00000200860486088604FF40060C860002042
:100BB0000861084602F0CEFB10E00020FFF72FFF8F
:100BC00005465DB90220E1490875002008604860CB
:100BD0008860C8600861084602F0BCFB2846C2E78E
:100BE00070B504460025DA4804600720D8494860FB
:100BF000402088600020C8604FF48060086108468B
:100C000002F0E8FB0720FFF730FE0546284670BDDE
:100C100030B5014600200022CB4B1B7881F84E30C6
:100C2000CC4B1B88A1F84C30CB4B1B681A0E930998
:100C30000B70C2F383034B7002F003038B70C64B3F
:100C40001B68C3F30742CA70C34B1B88C3F3072258
:100C50000A71C14B1A784A715B681A0E1301CB8076
:100C6000BD4B5B68C3F30742CB8843EA1213CB80CA
:100C700002F00F030B72B84B9B88C3F30722D30912
:100C80004B72C2F380138B72C2F34013CB72C2F368
:100C900000130B7300234B73AB4B1B681BB1AA4BA8
:100CA0001B68012B3CD193071B0D0B61AA4B1A79D2
:100CB0000B6943EA82030B61A74B9B681A0E0B6911
:100CC00043EA92130B61C2F3C2030B7502F00703F0
:100CD0004B75A14B9B68C3F3074253098B75C2F355
:100CE0008203CB7593075B0F0B769B4B1B89C3F37A
:100CF00007220B7E43EAD2130B760B695B1C4B6415
:100D00000C7E4B6CA41C0125A5406B434B640C7AF4
:100D10000123A3408B64D1E9113463434B6421E088
:100D2000894B1B68022B1DD18B4B1A7993069B0AAA
:100D30000B61894B9B681A0E0B6943EA02230B6116
:100D4000854B9B68C3F307420B6913430B61824BCE
:100D50001B89C3F307220B695B1CDB044B644FF454
:100D600000738B64C2F3801301F8193F93065B0E86
:100D70004B70794B1A7A4B7843EAD2134B7002F0DE
:100D80007F038B70744BDB681A0ED309CB70C2F3F0
:100D900041130B71C2F382034B7193071B0F8B71CD
:100DA0006D4BDB68C3F307428B7943EA92138B7177
:100DB000C2F34013CB7100230B7202F001034B729C
:100DC000654B9B89C3F30722D3098B72C2F380134F
:100DD000CB72C2F340130B73C2F300134B73C2F315
:100DE00081038B7302F00303CB735B4B1A7B5308B5
:100DF0000B7401234B74594B1B681A0ECA741939B2
:100E0000564B1B68C3F307421402CC85534B1B8817
:100E1000C3F30722CB8D1343CB85504B1A781406AE
:100E20000C635B681A0E0B6B43EA02440C634B4B7A
:100E30005B68C3F307420B6B43EA02240C63474B26
:100E40009B88C3F307220B6B13430B63434B1A7945
:100E500034235A54414B9B681A0E35235A543F4B46
:100E60009B68C3F3074214068C633C4B1B89C3F396
:100E700007228B6B43EA02448C63384B1A7A8B6BE4
:100E800043EA02248C63354BDB681A0E8B6B1343E9
:100E90008B63324BDB68C3F307423C235B5C43EA62
:100EA00012143C235C5413071C0DCC872B4B9B89DD
:100EB000C3F30722CB8F1343CB87284B1A7B5408ED
:100EC00040235C54012441235C5430BD70B500259F
:100ED0002348446B01E02248446B04F0450000289D
:100EE000F9D004F0040028B10325042002F0F3FA3D
:100EF000284670BD04F0010028B10125012002F050
:100F0000EAFA2846F5E740F2FF5002F0E4FA2846F4
:100F1000EFE72DE9F04106460F464FF00008104874
:100F2000456B01E00E48456B05F045000028F9D0FF
:100F300005F00400B0B14FF00308042002F0CBFA32
:100F40004046BDE8F081000024000020340D002060
:100F50004C0D002028000020B40C0020C40C002000
:100F60000080014005F0010030B14FF00108012080
:100F700002F0B1FA4046E4E702F046FAB04203D08C
:100F80004FF010084046DCE740F2FF5002F0A3FAB1
:100F9000002002F03DFA044604F4604018B9200C29
:100FA00038804046CDE704F4005008B11320C8E76C
:100FB00004F4804008B11020C3E704F4004008B1F5
:100FC0000F20BEE74046BCE738B500240120009062
:100FD00002F0EBF910B92524204638BDF648006828
:100FE000042828D00020F549086002204860C0206D
:100FF00088600020C8604FF480600861084602F0F5
:10100000E9F9FFF763FF04460CB12046E5E700204D
:1010100002F0FEF9EA490860042002F0F9F9E84913
:101020004860082002F0F4F9E54988600C2002F0DD
:10103000EFF9E349C860E048006858B1DE4800684D
:10104000012807D0DC480068062803D0DA48006889
:10105000022816D10020D9490860032048604020AA
:1010600088600020C8604FF480600861084602F084
:10107000B1F969460320FFF74CFF04460CB1204646
:10108000ABE7CD48006804282ED0BDF80000CD495C
:101090000860BDF800000004C849086009204860E5
:1010A000C02088600020C8604FF480600861084656
:1010B00002F090F9FFF70AFF04460CB120468CE7D6
:1010C000002002F0A5F9C0490860042002F0A0F950
:1010D000BD494860082002F09BF9BB4988600C209C
:1010E00002F096F9B849C8600024204675E770B54B
:1010F0000025B648446B01E0B448446B04F0450059
:101100000028F9D004F0040028B10325042002F0DF
:10111000E2F9284670BD40F2FF5002F0DCF92846A3
:10112000F8E770B500264FF48035A848446B02E01C
:101130006D1EA648446B04F0450008B9002DF7D198
:1011400015B104F0040028B10326042002F0C3F90D
:10115000304670BD04F0400028B10026402002F067
:10116000BAF93046F5E73046F3E770B500254FF49D
:10117000803400E0641E24B1802002F0A2F900282F
:10118000F8D014B90325284670BD40F2FF5002F094
:10119000A2F92846F8E72DE9F041002400260025B1
:1011A0000027A046B2208A490875002008604860E0
:1011B0008860C8600861084602F0CCF8032002F09D
:1011C000E9F8012002F0E3F800207C49086048605B
:1011D0008860C8604FF480600861084602F0FAF841
:1011E000FFF7C3FF044614B12046BDE8F0814FF479
:1011F000D57072490860082048604020886000204F
:10120000C8604FF480600861084602F0E3F8FFF719
:1012100088FF04462CB90120674908604FF08048D8
:1012200012E000206549086037204860402088604F
:101230000020C8604FF480600861084602F0CAF8D8
:101240003720FFF712FB044600205C490860372076
:101250004860402088600020C8604FF480600861CA
:10126000084602F0B7F83720FFF7FFFA0446002CD3
:101270004AD136E0002051490860372048604020BC
:1012800088600020C8604FF480600861084602F062
:10129000A1F83720FFF7E9FA04460CB12046A4E78D
:1012A0004C4848EA00004549086029204860402031
:1012B00088600020C8604FF480600861084602F032
:1012C00089F8FFF714FF04460CB120468DE7002093
:1012D00002F09EF80646012080EAD67080F00107F1
:1012E0006D1C1FB94FF6FF708542C3D34FF6FF70D8
:1012F000854202D31B24204677E706F08040061E75
:1013000002D002202C49086020466EE710B5002468
:10131000FFF788FA02F010F8FFF73DFF04460CB122
:10132000204610BDFFF750FE04460CB12046F8E7FA
:101330000220274908750020086048608860C8605E
:101340000861084602F006F81CB92348FFF760FC64
:10135000044634B92049B1F84C100804FFF740FCAA
:1013600004461CB90020FFF7F5FB04462046D8E7E9
:1013700070B50446002513480088000413498860AE
:1013800040F24D40C8600D20FFF76FFA05460DB1E1
:10139000284670BD0D48406920602846F9E708B529
:1013A000002000906846FFF7E3FF08B1FF2008BD6A
:1013B0000098C0F34320FAE7240000204C0D0020E1
:1013C000C40C002028000020B40C00200080014044
:1013D000340D002000001080E40C002010B504241F
:1013E000FFF7DDFF0446042C01D1002010BDFF2CC7
:1013F00001D10220FAE70120F8E710B5002400200F
:1014000001F0C8FF204610BD70B504460025002637
:10141000002001F0FDFF00F0007010B10E252846FD
:1014200070BD4020FC490860102048604020886062
:101430000020C8604FF480600861084601F0CAFFD0
:101440001020FFF712FA05460DB12846E8E7F348E9
:1014500000880004F0490860372048604020886018
:101460000020C8604FF480600861084601F0B2FFB8
:101470003720FFF7FAF905460DB12846D0E74FF0BF
:10148000FF30E74908604020486060208860022003
:10149000C8600020086101204861084601F0C3FFD0
:1014A0000020DD4908600D20486040208860002051
:1014B000C8604FF480600861084601F08BFF0D2082
:1014C000FFF7D3F905460DB12846A9E70EE04FF422
:1014D000004001F0F6FF48B1002604E001F0C5FF2E
:1014E00044F82600761C082EF8D32034CD48406BF3
:1014F00040F22A6108400028E9D0082001F0E1FF0D
:1015000028B1082001F0E7FF0425284688E70220DB
:1015100001F0D7FF28B1022001F0DDFF02252846A7
:101520007EE7202001F0CDFF28B1202001F0D3FF7D
:101530000625284674E74FF4007001F0C2FF30B171
:101540004FF4007001F0C7FF0725284668E703E065
:1015500001F08BFF2060241D4FF4001001F0B1FF5B
:101560000028F5D140F2FF5001F0B5FF284657E7BB
:1015700070B5044600260025AB48FFF745FF064638
:101580000EB1304670BDA848007885092570A64880
:101590000078C0F340156570A34885782802608004
:1015A000A148C5786088284360809F48057928064F
:1015B00060609D484579606840EA054060609A48EF
:1015C0008579606840EA052060609748C579606861
:1015D000284360609448057A2572457A6572807A5E
:1015E0000509A5729048C57A2802A0818E48057B1E
:1015F000A0892843A0818C48407B8508A5738A4830
:10160000407B00F00305E5733046BBE72DE9F04170
:1016100007460D4614460026002084490870844978
:101620000860844908607F49C862834800680228CE
:1016300001D104026D0A78480460102076494860A0
:10164000402088600020C8604FF480600861084630
:1016500001F0C0FE1020FFF708F9064616B130462B
:10166000BDE8F0814FF0FF306D49086008464460E6
:10167000902088600220C860002008610120486135
:10168000084601F0D0FE64480560112062494860B8
:10169000402088600020C8604FF4806008610846E0
:1016A00001F098FE1120FFF7E0F806460EB1304633
:1016B000D6E70121080201F07DFE012001F087FE3E
:1016C00021463846FFF758F83046C9E72DE9F04182
:1016D00080460D4614461E460027002053490870D8
:1016E0005349086001205349086000204D49C862F1
:1016F00051480068022801D104026D0A464804607E
:10170000102045494860402088600020C8604FF4A0
:1017100080600861084601F05DFE1020FFF7A5F823
:10172000074617B13846BDE8F0814FF0FF303C491D
:10173000086006FB04F04860902088600220C860C2
:101740000020086101204861084601F06CFE324823
:101750000560122030494860402088600020C86041
:101760004FF480600861084601F034FE1220FFF754
:101770007CF807460FB13846D5E70121080201F091
:1017800019FE012001F023FE06FB04F14046FEF79E
:10179000F3FF3846C7E710B5002400BFFEF7E7FFA8
:1017A00030B92348006818B9204800780028F5D0DF
:1017B0001E48007810B11D48007810BD2046FCE797
:1017C0002DE9F04107460D46144600260020174932
:1017D000087017490860174908601249C86216481E
:1017E0000068022801D104026D0A0B480460102031
:1017F00009494860402088600020C8604FF480603C
:101800000861084601F0E6FD1020FFF72EF80646B5
:10181000A6B13046BDE8F0814C0D00202800002024
:10182000600D002000800140D40C0020300000201A
:10183000340000202C00002024000020FE48056019
:101840001820FD494860402088600020C8604FF49F
:1018500080600861084601F0BDFD1820FFF705F81B
:1018600006460EB13046D5E74FF0FF30F349086029
:1018700008464460902088600020C860086101200C
:101880004861084601F0CFFD0121080201F092FDF8
:1018900021463846FEF79BFF012001F098FD3046B7
:1018A000B8E72DE9F84380460F4615461E4600244A
:1018B00000200090E2490870E24908600120E249F6
:1018C00008600020E149C862E1480068022801D1AF
:1018D00005027F0AD84805601020D749486040209B
:1018E00088600020C8604FF480600861084601F0FD
:1018F00071FD1020FEF7B9FF044614B12046BDE883
:10190000F883D44800880004CB4908603720486039
:10191000402088600020C8604FF48060086108465D
:1019200001F058FD3720FEF7A0FF04460CB1204619
:10193000E5E7C14806601720BF494860402088603D
:101940000020C8604FF480600861084601F042FD45
:101950001720FEF78AFF04460CB12046CFE7B648B1
:1019600007601920B4494860402088600020C860A2
:101970004FF480600861084601F02CFD1920FEF745
:1019800074FF04460CB12046B9E74FF0FF30AB4975
:10199000086006FB05F04860902088600020C86061
:1019A000086101204861084601F03DFD012108025F
:1019B00001F000FD012001F00AFD06FB05F14046A3
:1019C000FEF705FF20469AE710B5002400BFFEF79A
:1019D000CEFE30B99B48006818B9994800780028B5
:1019E000F5D09748007810B19548007810BD40F2C6
:1019F000FF5001F070FD2046F8E79448406B00F47A
:101A0000405008B1012070470020FCE710B50024C9
:101A100000208E49886040F24C40C8600C20FEF7E0
:101A200024FF0446204610BD7CB504460025002056
:101A3000019000908748008800047F4908600D20CD
:101A40004860402088600020C8604FF480600861D2
:101A5000084601F0BFFC7D48406B009002E07B48E7
:101A6000406B0090009800F045000028F7D00098E7
:101A700000F0040028B10325042001F02CFD2846C5
:101A80007CBD009800F0010028B10125012001F083
:101A900022FD2846F4E701F0B7FC009000980D28DD
:101AA00002D010252846EBE740F2FF5001F013FD6D
:101AB000002001F0ADFC01900198C0F3432020709C
:101AC00065490198084008B92846D9E7019800F00F
:101AD000004008B11C20D3E7019800F0804008B115
:101AE0000920CDE7019800F0005008B10A20C7E7AF
:101AF000019800F0805008B10B20C1E7019800F078
:101B0000006008B10C20BBE7019800F0806008B1CC
:101B10000D20B5E7019800F0807008B10E20AFE706
:101B2000019800F4000008B10F20A9E7019800F423
:101B3000800008B11020A3E7019800F4001008B15C
:101B400011209DE7019800F4801008B1122097E75A
:101B5000019800F4002008B1132091E7019800F4E7
:101B6000802008B114208BE7019800F4003008B100
:101B7000152085E7019800F4803008B116207FE732
:101B8000019800F4004008B1172079E7019800F4AB
:101B9000804008B1182073E7019800F4005008B1A4
:101BA00019206DE7019800F0080008B11A2067E7D6
:101BB000284665E72DE9FC4105460E46002400272E
:101BC00000200190009025484068202101EA105033
:101BD00018B925242046BDE8FC811C484068C0B2E5
:101BE000801C1F49B1FBF0F00190002001F010FCB7
:101BF00000F0007010B10E242046ECE71448006895
:101C0000022801D16D0A760A1148006838B11048DF
:101C10000068012803D00E480068022842D1064817
:101C20000560202004494860402088600020C8608A
:101C30004FF48060086115E04C0D0020600D00201D
:101C400030000020340000202C00002000800140E3
:101C5000240000202800002008E0FFFDB40C002034
:101C6000C0D40100084601F0B5FB2020FEF7FDFDC1
:101C700004460CB12046AEE73848066021203749BB
:101C80004860402088600020C8604FF48060086190
:101C9000084601F09FFB2120FEF7E7FD04460CB14A
:101CA000204698E700202D49086026204860402003
:101CB00088600020C8604FF480600861084601F029
:101CC00089FB2620FEF7D1FD04460CB1204682E7B1
:101CD000002700E07F1C01988742FBD36846FFF78E
:101CE000A3FE044603E06846FFF79EFE04463CB9A7
:101CF0009DF800000728F6D09DF800000628F2D0D5
:101D0000204668E710B51648006801280BD100206E
:101D10001449886040F24C40C8600C20FEF7A5FDD5
:101D20001149087002E000200F4908704FF48070DC
:101D300001F0DEFB00214FF4807001F03BFB01203D
:101D40000A4908600848007810BD0146002002E0FA
:101D50004910421CD0B20129FAD170474C0D002025
:101D60002C000020008001403000002034000020C2
:101D700010B56FF0040000F0B8FE2E4800682E4940
:101D8000B0FBF1F02D4908700846007800EB4001E7
:101D9000C1EBC0104FF6FF7101EAC000284908806E
:101DA00010BD0146254A12784A434FF0E0235A619C
:101DB00000229A611A46126942F001021A6100BFBC
:101DC0004FF0E022106900F001021AB100F48032F5
:101DD000002AF5D04FF0E022126922F001024FF004
:101DE000E0231A6100229A6170470146144A128862
:101DF0004A434FF0E0235A6100229A611A46126961
:101E000042F001021A6100BF4FF0E022106900F0B9
:101E100001021AB100F48032002AF5D04FF0E0221E
:101E2000126922F001024FF0E0231A6100229A6148
:101E3000704700001000002000127A0038000020D7
:101E40003A00002010B54FF4A06000F0FFFD10BD77
:101E5000014600BF704700BF2F4A128802F04002BF
:101E6000002AF9D0C2B22C4B1B1D1A80704710B546
:101E700086B00446012144F2040000F07FFB2648AE
:101E800000F0E0FB4FF40070ADF8140003208DF873
:101E9000160018208DF8170005A9204800F0B2F8A8
:101EA0004FF48060ADF8140004208DF8170005A9E8
:101EB0001A4800F0A7F825208DF8000003208DF8BF
:101EC00001008DF8020001208DF80300684600F043
:101ED000C2FD01940020ADF80800ADF80A00ADF88D
:101EE0000C00ADF810000820ADF80E0001A90A485A
:101EF00000F0EBFB0121084800F073FC06B010BDB8
:101F000010B540F22551044800F05CFD18B10248BC
:101F100000F0D8FCC4B210BD0038014000080140F8
:101F20000648804706480047FEE7FEE7FEE7FEE773
:101F3000FEE7FEE7FEE7FEE7FEE7FEE78B040008AC
:101F40003101000810B50446CC48844208D1012173
:101F5000042000F02DFB0021042000F029FB46E0C6
:101F6000C748844208D10121082000F021FB00214C
:101F7000082000F01DFB3AE0C248844208D101214C
:101F8000102000F015FB0021102000F011FB2EE0C6
:101F9000BD48844208D10121202000F009FB002126
:101FA000202000F005FB22E0B848844208D101213E
:101FB000402000F0FDFA0021402000F0F9FA16E080
:101FC000B348844208D10121802000F0F1FA0021B9
:101FD000802000F0EDFA0AE0AE48844207D10121EA
:101FE000801500F0E5FA0021A01500F0E1FA10BD1F
:101FF00010B50121084600F0DBFA0021012000F0B5
:10200000D7FA10BD2DE9F041024600250026002038
:1020100000230024002791F803C00CF00F0591F86D
:1020200003C00CF0100CBCF1000F03D091F802C0FB
:102030004CEA050591F800C0BCF1000F31D01468DE
:1020400000202BE04FF0010C0CFA00F3B1F800C0B7
:102050000CEA03069E4220D183004FF00F0C0CFACD
:1020600003F7BC4305FA03FC4CEA040491F803C0EF
:10207000BCF1280F06D14FF0010C0CFA00FCC2F89D
:1020800014C00AE091F803C0BCF1480F05D14FF02D
:10209000010C0CFA00FCC2F810C0401C0828D1D377
:1020A0001460B1F800C0BCF1FF0F34DD54680020AB
:1020B0002EE000F1080C4FF0010808FA0CF3B1F81B
:1020C00000C00CEA03069E4221D183004FF00F0CA2
:1020D0000CFA03F7BC4305FA03FC4CEA040491F83C
:1020E00003C0BCF1280F05D100F1080C08FA0CF868
:1020F000C2F8148091F803C0BCF1480F07D100F179
:10210000080C4FF0010808FA0CF8C2F81080401CC7
:102110000828CED35460BDE8F0814FF6FF710180EE
:10212000022181700421C17070470246002093682B
:102130000B400BB1012000E0002070470146886889
:1021400080B2704702460020D3680B400BB10120DB
:1021500000E0002070470146C86880B27047016106
:102160007047416170470AB1016100E04161704709
:10217000C16070474FF480320A438261816182619D
:1021800082698269704702460020434B18684FF607
:102190008073184040EA021008433F4B18607047B4
:1021A0003E49C8617047F0B50A460023002400216B
:1021B000002500F00046B6F1004F02D1364EF1691D
:1021C00001E0354E7168C0F3034583B200F4401658
:1021D000B6F5401F08D121F070612F4E766826F0C9
:1021E00070662D4F7E6012E000F48016B6F5801FF9
:1021F00006D1032606FA05F4A14341F0706106E01A
:10220000460D360103FA06F6B14341F0706122B182
:10221000460D360103FA06F6314300F00046B6F1EA
:10222000004F02D11C4EF16101E01B4E7160F0BD08
:1022300030B500228B071C0F0F2303FA04F2164B54
:1022400008338C1053F824309343134C08348D100A
:1022500044F8253023468C1053F824308C07240F83
:1022600000FA04F423430C4C08348D1044F8253054
:1022700030BD0A49DC3108607047000000080140A9
:10228000000C014000100140001401400018014002
:10229000001C0140002001400000014000002042DD
:1022A000DF48006840F00100DD49086008464068EA
:1022B000DC490840DA49486008460068DA490840C5
:1022C000D74908600846006820F480200860084666
:1022D000406820F4FE0048604FF41F00886070479B
:1022E000CF49096821F48031CD4A1160114609684F
:1022F00021F480211160B0F5803F03D0B0F5802F2C
:102300000ED106E0C649096841F48031C44A116023
:1023100007E0C349096841F4A021C14A116000E007
:1023200000BF00BF704710B5014600220023002007
:102330004A11012A02D1BA4C236806E0022A02D1CE
:10234000B74C236A01E0B64C636A01F01F02012416
:1023500094401C400CB1012000E0002010BD38B5B5
:10236000002000900024002500BF3120FFF7DBFF94
:1023700005460098401C00900098B0F5A06F01D071
:10238000002DF2D03120FFF7CEFF08B1012400E08C
:102390000024204638BD01460020A14A106820F0E4
:1023A000F80040EAC10010607047A049086070471B
:1023B000024600209A4B586820F47C1042EA010340
:1023C0001843974B58607047984908667047014614
:1023D0000020934A506820F0030008435060704783
:1023E0008F48406800F00C007047014600208C4A7E
:1023F000506820F0F000084350607047014600200C
:10240000874A506820F4E0600843506070470146F6
:102410000020834A506820F4605040EAC1005060B8
:10242000704729B17E4A527A02437D4B5A7204E0CA
:102430007B4A527A82437A4B5A7270477B49D83131
:102440000860704701460020754A506820F44040FB
:102450000843506070470021714A20321170704A61
:1024600082F82010012802D004280AD104E00121BA
:102470006B4A2032117005E00521694A2032117043
:1024800000E000BF00BF70476949086070476449B9
:10249000096A0143624A116270476549443908601C
:1024A000704730B500210022002400235C4D6D6888
:1024B00005F00C0121B1042905D0082923D105E03C
:1024C0005C4D056022E05B4D05601FE0544D6D687A
:1024D00005F47012524D6D6805F48034022505EB49
:1024E00092421CB9544D554305600BE04C4D6D684C
:1024F00005F400351DB1504D5543056002E04D4DCA
:102500005543056002E04B4D056000BF00BF444DE0
:102510006D6805F0F0010909484D6B5C0568DD4008
:1025200045603F4D6D6805F4E061090A434D6B5C01
:102530004568DD4085603A4D6D6805F46051C90A13
:102540003E4D6B5C4568DD40C560354D6D6805F4FA
:102550004041890B3A4D6B5CC568B5FBF3F50561ED
:1025600030BD29B12E4A526902432D4B5A6104E015
:102570002B4A526982432A4B5A61704729B1284A33
:1025800092690243264B9A6104E0254A926982438C
:10259000234B9A61704729B1214AD2690243204BEB
:1025A000DA6104E01E4AD26982431D4BDA6170474A
:1025B00029B11B4AD2680243194BDA6004E0184A79
:1025C000D2688243164BDA60704729B1144A126907
:1025D0000243134B1A6104E0114A12698243104B03
:1025E0001A61704712494039086070470F49C86442
:1025F00070470B49C87170470948406A40F08070C5
:1026000007494862704701460020054A92680A401F
:102610000AB1012000E0002070470149887270472C
:10262000001002400000FFF8FFFFF6FE00004242EB
:102630008004424200127A0000093D004000002060
:102640005000002010B50446FB48844209D1012106
:102650008803FFF7ADFF00214FF48040FFF7A8FF8C
:1026600032E0F648844209D101214804FFF7ADFF6A
:1026700000214FF40030FFF7A8FF25E0F048844226
:1026800009D101218804FFF7A0FF00214FF4802029
:10269000FFF79BFF18E0EB48844209D10121C804F1
:1026A000FFF793FF00214FF40020FFF78EFF0BE0B0
:1026B000E548844208D101210805FFF786FF002183
:1026C0004FF48010FFF781FF10BD2DE9F04786B071
:1026D00005460E460024A24600BFA1460027B08949
:1026E00000B100BF2F462C8A4CF6FF700440F088E2
:1026F00004432C82AC894EF6F3100440B088318933
:102700000843718908430443AC81AC8A4FF6FF400B
:102710000440B0890443AC8201A8FFF7C2FEC6485A
:10272000874202D1DDF810A001E0DDF80CA0A889F5
:1027300000F4004040B10AEBCA0000EB0A10316817
:102740004900B0FBF1F807E00AEBCA0000EB0A1001
:1027500031688900B0FBF1F86420B8FBF0F00401A7
:102760002009642101FB1089A88900F4004040B1D0
:10277000322000EBC900B0FBF1F000F00700044389
:1027800008E0322000EB09106421B0FBF1F000F00A
:102790000F0004432C8106B0BDE8F0874FF41651BA
:1027A000016000218180C18001810C2141810021D3
:1027B0008181704710B502460020108A4FF2FF0356
:1027C00018400B884C8823438C882343CC882343B0
:1027D0001843108210BD0021018041808180C1809A
:1027E000704721B1828942F40052828104E08289DB
:1027F0004DF6FF731A4082817047F0B503460024FE
:1028000000260025002040F66A17B94200D100BF1B
:102810001846C1F3421401F01F06012707FA06F516
:10282000012C01D10C3004E0022C01D1103000E069
:1028300014301AB107682F43076002E00768AF43FE
:102840000760F0BD1AB1838A0B43838202E0838A5A
:102850008B4383827047028A4FF6F0731A400282DC
:10286000028A0A430282704782894FF2FF731A403C
:10287000828182890A438281704721B1828942F034
:102880000202828104E082894FF6FD731A40828140
:102890007047028A4FF6DF731A400282028A0A43A7
:1028A0000282704721B1028A42F48042028204E02F
:1028B000028A4BF6FF731A4002827047C1F3080286
:1028C0008280704701468888C0F30800704781897C
:1028D00041F0010181817047028BD2B20283028BE9
:1028E00042EA012202837047028B02F47F42028394
:1028F000028B0A430283704721B1828A42F0200290
:10290000828204E0828A4FF6DF731A408282704727
:1029100021B1828A42F01002828204E0828A4FF65C
:10292000EF731A408282704721B1828A42F0080216
:10293000828204E0828A4FF6F7731A4082827047DF
:1029400021B1828942F40042828103E08289C2F38C
:102950000E028281704721B1828A42F40062828233
:1029600004E0828A4FF2FF731A4082827047828AA3
:102970004FF6FB731A408282828A0A438282704732
:1029800021B1828A42F00202828204E0828A4FF6FA
:10299000FD731A408282704702460020B1F5007F25
:1029A00000D100BF13880B400BB1012000E00020D4
:1029B000704701F40072B2F5007F00D100BFCA4336
:1029C0000280704770B502460024002300250020D5
:1029D00040F66A16B14200D100BFC1F3421501F0C2
:1029E0001F03012606FA03F3012D02D19689334015
:1029F00006E0022D02D1168A334001E0968A334068
:102A00000C12012606FA04F41688344013B10CB1F6
:102A1000012000E0002070BD10B50022002340F628
:102A20006A14A14200D100BF0A1201249440A3B24B
:102A3000DC43048010BD0000003801400044004029
:102A400000480040004C0040005000403149014324
:102A5000314A1160704770B5002100230F22C478FD
:102A600004B32D4C246804F4E064C4F5E064210A46
:102A7000C1F10403CA40447804FA03F18478144095
:102A800021430901254C0678A155047804F01F055F
:102A90000124AC4005786D11AD0005F1E025C5F8C5
:102AA000004109E0047804F01F050124AC401C4DEE
:102AB0000678761145F8264070BD1A4A0A4002434E
:102AC000154B1B1F1A60704739B1134A121D12684B
:102AD0000243114B1B1D1A6006E00F4A121D1268BB
:102AE00082430D4B1B1D1A607047042808D14FF01C
:102AF000E021096941F004014FF0E022116107E093
:102B00004FF0E021096921F004014FF0E02211614A
:102B1000704700000000FA050CED00E000E400E062
:102B200080E100E080FFFF1F01460020FE4A1068A0
:102B300000F03800084310607047FB49096821F035
:102B40000801F94A11601146096801431160704794
:102B5000F549096821F01001F34A1160114609682E
:102B6000014311607047F148EF494860F048486000
:102B70007047EE48EC494860ED4848607047EA48C5
:102B8000006940F08000E84908617047E648006944
:102B900040F08000E449086170470420E249C968B8
:102BA00001F0010109B101200EE0DF49C96801F01F
:102BB000040109B1022007E0DB49C96801F01001F6
:102BC00009B1032000E00420704700B50246042349
:102BD000FFF7E3FF034603E0FFF7DFFF0346521E64
:102BE000012B01D1002AF7D102B90523184600BDF7
:102BF00030B5044604254FF43020FFF7E6FF0546C4
:102C0000042D17D1C848006940F00200C649086188
:102C100008464461006940F0400008614FF43020EC
:102C2000FFF7D3FF0546C048006941F6FD71084033
:102C3000BD490861284630BD10B504244FF430204A
:102C4000FFF7C3FF0446042C16D1B748006940F0D3
:102C50000400B54908610846006940F04000086179
:102C60004FF43020FFF7B1FF0446AF48006941F64A
:102C7000FB710840AC490861204610BD00B5024612
:102C80000423FFF78AFF034603E0FFF786FF0346AE
:102C9000521E012B01D1002AF7D102B90523184693
:102CA00000BD10B504244FF43020FFF7E7FF0446C1
:102CB000042C16D19C48006940F004009A49086130
:102CC0000846006940F0400008614FF43020FFF7EB
:102CD000D5FF04469448006941F6FB7108409249CB
:102CE0000861204610BD00208F49C96901F002012A
:102CF00009B1012000E00020704730B5A52504246B
:102D0000FFF7F1FF00B100254FF43020FFF75DFF22
:102D10000446042C3AD185488349886084488860F9
:102D20000846006940F0200008610846006940F04C
:102D3000400008614FF43020FFF747FF0446042CA1
:102D40001BD17948006941F6DF7108407649086176
:102D50000846006940F01000086176480580E002EE
:102D6000FFF733FF0446052C10D06F48006941F689
:102D7000EF7108406C49086108E0052C06D06A48EC
:102D8000006941F6EF71084067490861204630BD8F
:102D900078B506460C46042500200090E802FFF7AF
:102DA00014FF0546042D24D15F48006940F001005E
:102DB0005D4908613480E802FFF707FF0546042DEE
:102DC00010D1B01C0090200C00990880E802FFF799
:102DD000FCFE05465448006941F6FE710840524920
:102DE000086106E05048006941F6FE7108404E490E
:102DF0000861284678BD70B504460D460426F002E9
:102E0000FFF7E3FE0646042E11D14748006940F063
:102E10000100454908612580F002FFF7D6FE06460D
:102E20004148006941F6FE7108403F49086130465B
:102E300070BD70B505460E460424E002FFF7C5FEDE
:102E40000446042C17D139483749886038488860CF
:102E50000846006940F0100008612E80E002FFF78C
:102E6000B4FE0446052C06D02F48006941F6EF71E8
:102E700008402D490861204670BD2DE9F043044605
:102E80004FF6FF763746B046B1460425E443E6B236
:102E9000C4F30727C4F307484FEA1469E802FFF7B1
:102EA00094FE0546042D49D120481F4988602048DA
:102EB00088600846006940F010000861FF2E06D0C7
:102EC0001C4808300680E802FFF77FFE0546042D07
:102ED00008D1FF2F06D017480A300780E802FFF715
:102EE00074FE0546042D0AD1B8F1FF0F07D0114832
:102EF0000C30A0F80080E802FFF767FE0546042DBD
:102F00000AD1B9F1FF0F07D00A480E30A0F800909F
:102F1000E802FFF75AFE0546052D0FD0024800696A
:102F200041F6EF71084007E00020024023016745A9
:102F3000AB89EFCD00F8FF1F664908612846BDE860
:102F4000F08330B5054604244FF43020FFF73DFEF2
:102F50000446042C41D160485E4988605F4888601F
:102F60000846006940F0200008610846006940F00A
:102F7000400008614FF43020FFF727FE0446042C80
:102F800022D15448006941F6DF7108405149086177
:102F90000846006940F0100008611DB1002050494A
:102FA000088002E0A5204E4908804FF43020FFF74A
:102FB0000CFE0446052C10D04648006941F6EF711E
:102FC00008404449086108E0052C06D041480069E2
:102FD00041F6DF7108403F490861204630BDF0B539
:102FE00005460E46174604243B483A4988603B484C
:102FF0008860E002FFF7E9FD0446042C19D135484A
:10300000006940F010003349086147F0F800304390
:1030100028433349891C0880E002FFF7D6FD0446A7
:10302000052C06D02B48006941F6EF71084029496C
:1030300008612046F0BD2748C069800870472548D0
:10304000006A704700202349096801F0200109B196
:10305000012000E00020704729B11E4A1269024396
:103060001C4B1A6104E01B4A12698243194B1A6116
:10307000704701460020012908D1164AD26902F0A2
:1030800001020AB1012008E0002006E0114AD268DE
:103090000A400AB1012000E0002070470D49C860D5
:1030A000704704200B49C96801F0010109B10120F2
:1030B0000EE00849C96801F0040109B1022007E0E7
:1030C0000449C96801F0100109B1032000E004209F
:1030D000704700000020024023016745AB89EFCD17
:1030E00000F8FF1F01684FF6FE72114001600021D9
:1030F000016041608160C1608D49884208D18C497E
:103100000839496841F00F01894A083A51608AE05C
:1031100087491431884208D185490839496841F006
:10312000F001834A083A51607DE0814928318842A4
:1031300008D17F490839496841F470617C4A083AEE
:10314000516070E07A493C31884208D178490839A9
:10315000496841F47041764A083A516063E0744925
:103160005031884208D172490839496841F47021C8
:103170006F4A083A516056E06D496431884208D17F
:103180006B490839496841F47001694A083A51604D
:1031900049E067497831884208D16549083949686A
:1031A00041F07061624A083A51603CE061498842EE
:1031B00006D1011F096841F00F01021F116032E0C2
:1031C0005C491431884208D15A49091F096841F005
:1031D000F001584A121F116025E0564928318842F3
:1031E00008D15449091F096841F47061514A121FFE
:1031F000116018E04F493C31884208D14D49091F00
:10320000096841F470414B4A121F11600BE04949B3
:103210005031884207D14749091F096841F470219C
:10322000444A121F1160704710B50022026847F629
:10323000F0739A430C6A8B6823430C6923434C69EF
:1032400023438C692343CC6923434C6A23438C6A10
:1032500023431A430260CB6843600B6883604B686A
:10326000C36010BD0021016041608160C1600161E7
:1032700041618161C161016241628162704721B136
:10328000026842F00102026004E002684FF6FE7339
:103290001A40026070471AB103680B43036002E0F2
:1032A00003688B430360704741607047014648687C
:1032B00080B2704701460020002201F080531BB10C
:1032C0001C4B083B1A6802E0194B083B1A6802EADB
:1032D00001030BB1012000E00020704700F0805195
:1032E00019B11449091F086002E011490839486002
:1032F000704701460020002201F080531BB10D4BA6
:10330000083B1A6802E00A4B083B1A6802EA01030C
:103310000BB1012000E00020704700F0805119B18E
:103320000449091F086002E00149083948607047F4
:10333000080002400804024000206F49086048600D
:103340008860C86048628862C8626C4888630020F0
:10335000C86370470021684A516847F6FF6291438D
:10336000027D83681A4343681A43C3681A4303689B
:103370001A4303691A4311435F4A516070470021A1
:103380000175016041608160C160016170475C4905
:10339000086070475849096821F00301564A1160D6
:1033A000114609680143116070475348006800F0F6
:1033B0000300704729B1504AD26B02434E4BDA6387
:1033C00004E04D4AD26B82434B4BDA6370474D4960
:1033D000086070470021484B02689A601A46D1681D
:1033E0006FF30A01D0E901231A43C3681A43036942
:1033F0001A431143404AD160704700210160416087
:103400008160C160016170473B480069C0B270478C
:1034100008B5014600200090374814300844009059
:103420000098006808BD0021334B02685A62426868
:103430009A621A46D16A21F0F701D0E902231A43B1
:1034400003691A4343691A4311432B4AD1627047F7
:103450004FF0FF310160002141608160C160016176
:10346000416170472448006B7047234880300068F2
:10347000704721498031086070471F48806C704751
:1034800020491431086070471E49183108607047A0
:103490001C491C31086070471A4920310860704788
:1034A0001949086070471849091D086070470121D3
:1034B0008143154A08321160704713490C31086086
:1034C0007047014600200C4A526B0A400AB10120A5
:1034D00000E00020704708498863704701460020DB
:1034E000054A526B0A400AB1012000E000207047F3
:1034F000014988637047000000800140FF07C00059
:10350000A00030428C053042AC0130422DE9F05F22
:1035100006460F4690460024B3463D46A1461CE0B1
:1035200068784FEA002A287850441FFA80FAAD1CC8
:103530002046611C8CB2174921F810A0B4F5806FA9
:1035400007D100244FF480625846FDF760F80BF570
:10355000006B09F102001FFA80F9C145E0D324B1E4
:1035600022460C495846FDF752F8BDE8F09F10B5C9
:103570000446206808490840B0F1005F08D160683F
:10358000064908602068FCF7E0FD044800688047B1
:1035900010BD0000780D00200000FE2F5400002018
:1035A00070B505460DB1012070BDFDF7AFFE0446B4
:1035B0000CB10120F8E70020F6E701460020704733
:1035C0002DE9F04107460D4614461E46012E0EDD3C
:1035D000610233464FF400722846FEF777F8FEF793
:1035E000DAF800BFFDF7FAFE0028FBD10CE061021B
:1035F0004FF400722846FEF709F8FEF7CCF800BF3A
:10360000FDF7ECFE0028FBD10020BDE8F0812DE99C
:10361000F04107460D4614461E46012E0EDD61029E
:1036200033464FF400722846FEF73BF9FEF7CCF91B
:1036300000BFFDF7D3FE0028FBD10CE061024FF480
:1036400000722846FEF7BCF8FEF7BEF900BFFDF792
:10365000C5FE0028FBD10020BDE8F0810346002014
:10366000704700207047000070B503460C4603E029
:1036700014F8015B03F8015B151EA2F10102F7D1FA
:1036800070BD30B5034601E003F8011B141EA2F122
:103690000102F9D130BDF0B503461C460D460020AD
:1036A00000BF161EA2F1010207D014F8017B15F825
:1036B00001CBA7EB0C06301EF3D0F0BD024600E0B4
:1036C000521C107810B110788842F9D110787047E8
:1036D0002DE9F04104460D46E66AAE422FD020792E
:1036E00008B360780123324604F13001FFF78FFF01
:1036F00010B10120BDE8F08100202071D4E907104D
:103700000844B0420FD9E7780AE0E06906446078DF
:103710000123324604F13001FFF779FF781EC7B26A
:10372000012FF2DC00BF55B1607801232A4604F175
:103730003001FFF745FF08B10120DBE7E56200201B
:10374000D8E770B5044600212046FFF7C1FF0546C3
:10375000002D59D1207803284FD1607900284CD012
:103760000020E0624FF40072002104F13000FFF706
:1037700088FF552184F82E12AA2184F82F12522096
:1037800084F8300052213120015561213220015549
:10379000412133200155722184F8141284F8151246
:1037A000412184F81612612184F81712217C84F8D3
:1037B0001812208A010A84F819122069010C84F871
:1037C0001A122069010E84F81B12217B84F81C1246
:1037D000A089010A84F81D12E068010C84F81E1209
:1037E000E068010E84F81F126078012304F13001B3
:1037F0006269FFF70CFF00206071607800221146BB
:10380000FFF72CFF00B10125284670BD0246891E36
:103810009069801E884201D8002070479378906A92
:1038200001FB0300F9E72DE9F04105460C46022CA7
:1038300002D3A869A04202D80120BDE8F08128780F
:10384000012804D002282CD003285AD13DE0274675
:1038500007EB5707286A00EB57212846FFF738FF88
:1038600000B14EE0C7F3080105F1300010F8018007
:103870007F1C286A00EB57212846FFF729FF00B17B
:103880003FE0C7F3080105F13000405C48EA00283A
:1038900004F0010010B14FEA1810CEE7C8F30B0096
:1038A000CBE7286A00EB14212846FFF711FF00B18F
:1038B00027E040F2FF1000EA440105F130000E1845
:1038C0003078717840EA0120B7E7286A00EBD4111C
:1038D0002846FFF7FDFE00B113E040F2FF1000EABA
:1038E000840105F130000E18F0780006B17840EA46
:1038F0000140717840EA01203178084320F070409F
:103900009BE700BF4FF0FF3097E72DE9F0470546F2
:103910000E461746022E02D3A869B04202D84FF0D5
:1039200002088AE02878012804D0022841D0032820
:103930007DD154E0B14609EB5909286A00EB5921C1
:103940002846FFF7C5FE8046B8F1000F00D071E0B1
:10395000C9F3080105F130000C1806F0010020B190
:10396000F9B2207861F31F1000E03846207009F1A9
:10397000010901202871286A00EB59212846FFF728
:10398000A7FE8046B8F1000F00D053E0C9F308014C
:1039900005F130000C1806F0010010B1C7F3071054
:1039A00005E0207800F0F000C7F303210843207001
:1039B00040E0286A00EB16212846FFF789FE804682
:1039C000B8F1000F00D035E040F2FF1000EA4601E8
:1039D00005F130000C182770380A60702AE0286A58
:1039E00000EBD6112846FFF773FE8046B8F1000FB2
:1039F00000D01FE040F2FF1000EA860105F1300020
:103A00000C18E0780006A17840EA0140617840EAAD
:103A100001202178084300F0704007432770380ADE
:103A20006070380CA070380EE07003E0FFE74FF0D4
:103A3000020800BF00BF012028714046BDE8F087A2
:103A40002DE9F04104460E46022E02D3A069B04291
:103A500001D8022725E000271FE031462046FFF766
:103A6000E2FE054605B91BE0012D01D1022717E052
:103A7000681C08B9012713E0002231462046FFF7F1
:103A800044FF074607B10BE02069401C20B12069C4
:103A9000401C2061012060712E46A069B042DCD834
:103AA00000BF3846BDE8F0812DE9F047044689465D
:103AB000B9F1000F06D1E76817B1A069B84211D873
:103AC00001270FE049462046FFF7ADFE0646022ECD
:103AD00002D20120BDE8F087A069B04201D930468A
:103AE000F8E74F463D4600BF6D1CA069A84204D8C8
:103AF0000225BD4201D90020ECE729462046FFF708
:103B000092FE064606B909E0701C08B1012E01D1EB
:103B10003046DFE7BD42E7D10020DBE700BF6FF0B2
:103B2000704229462046FFF7F0FE8046B8F1000FAC
:103B300008D1B9F1000F05D02A4649462046FFF7C3
:103B4000E4FE8046B8F1000F09D1E5602069401C11
:103B500068B12069401E20610120607107E0B8F162
:103B6000010F02D14FF0FF3000E00120054628464A
:103B7000B0E72DE9F04104460E46E680A568012D28
:103B800003D020688069A84202D80220BDE8F081F5
:103B90002DB920680078032801D12068456A65B9ED
:103BA000E56020680089B04201DC0220EEE7206871
:103BB000406A00EB1610206120E020688078070141
:103BC00012E029462068FFF72EFE0546681C08B95A
:103BD0000120DBE7022D03D320688069A84201D8C9
:103BE0000220D3E7F01B86B2BE42EADAE56029463E
:103BF0002068FFF70BFE00EB1610206120683030C4
:103C000006F00F0100EB411060610020BEE72DE9D6
:103C1000F0410446884600BFE088401C86B20EB1E1
:103C2000206910B90420BDE8F08106F00F000028DB
:103C30006FD12069401C2061E06828B920680089A4
:103C4000B04266DC0420EEE720688078401E00EA7F
:103C5000161000285DD1E1682068FFF7E4FD0546F5
:103C6000012D01D80220DEE7681C08B90120DAE73F
:103C700020688069A84246D8B8F1000F01D104201D
:103C8000D1E7E1682068FFF70FFF05460DB907206F
:103C9000C9E7012D01D10220C5E7681C08B9012040
:103CA000C1E700212068FFF713FD08B10120BAE742
:103CB000216801F130004FF400720021FFF7E1FCB0
:103CC00029462068FFF7A2FD2168C862002710E09E
:103CD00001202168087100212068FFF7F9FC08B174
:103CE0000120A0E72068C06A401C2168C862781CD7
:103CF000C7B220688078B842EADC2068C06AC01B7E
:103D00002168C86200BFE56029462068FFF77EFD94
:103D10002061E6802068303006F00F0100EB411092
:103D2000606100207FE72DE9F04104460021204634
:103D3000FFF71FFF054615B12846BDE8F08100BF1B
:103D400021692068FFF7C4FC054605B116E06669E5
:103D500037780FB9042511E0F07A00F0080030B987
:103D60000B223046A169FFF796FC00B906E000215E
:103D70002046FFF74CFF0546002DE1D000BF284646
:103D8000DBE72DE9F041044604251BE021692068AA
:103D9000FFF79EFC054605B117E067693E780EB94E
:103DA000042512E0E52E06D02E2E04D0F87A00F07D
:103DB000080000B909E000212046FFF728FF05466A
:103DC00005B102E020690028E0D100BF0DB100205C
:103DD00020612846BDE8F0812DE9F041044600212C
:103DE0002046FFF7C6FE0546ADB900BF2169206831
:103DF000FFF76EFC054605B10CE060690678E52E1C
:103E000000D006B906E001212046FFF700FF054675
:103E1000002DEBD000BF9DB921692068FFF758FC49
:103E200005466DB96769202200213846FFF729FC55
:103E30000B223846A169FFF717FC012021680871A1
:103E40002846BDE8F0812DE9F35F8A46DAF8007074
:103E500000E07F1C38782F28FBD038785C28F8D019
:103E6000009886690B2220213046FFF70AFC0025C6
:103E7000A946AB464FF0080800BF58460BF1010BAE
:103E80003C5C202C03DD2F2C01D05C2C00D134E0D5
:103E90002E2C01D0C1450ED3B8F1080F01D12E2C24
:103EA00002D00620BDE8FC9F4FF008094FF00B0838
:103EB000A806050EE1E7802C03DB45F0030506208C
:103EC000F0E72146FEA0FFF7F9FB08B10620E9E77D
:103ED000412C04DB5A2C02DC45F0020508E0612C81
:103EE00006DB7A2C04DC45F00105A4F12000C4B205
:103EF000484609F101093454BFE700BF07EB0B0046
:103F0000CAF80000202C01DC042000E00020044658
:103F1000B9F1000F01D10620C4E73078E52801D1BE
:103F200005203070B8F1080F01D1A806050E05F084
:103F30000300012801D144F0100405F00C0004280E
:103F400001D144F00804F4720020ABE7F0B5054657
:103F50000B4603F109022F69002F40D06869067BE8
:103F600000210AE0445C202C00D108E0052C00D19F
:103F7000E52400BF02F8014B491C0829F2D300BF19
:103F8000077A202F0FD02E2702F8017B082107E0A7
:103F9000445C202C00D105E000BF02F8014B491C15
:103FA0000B29F5D300BFC77A1F72C77F4FEA076C92
:103FB000877F4CEA074C477F4CEA072790F81CC0E4
:103FC00047EA0C071F6090F818C0477E4CEA0727A5
:103FD0009F8090F816C0C77D4CEA0727DF80002736
:103FE0001770F0BD2DE9F3410446019800782F28A1
:103FF00003D0019800785C2802D10198401C019000
:104000000020A06001980078202807D200212046D7
:10401000FFF7AFFD0646002060612FE000BF01A959
:104020002046FFF710FF064606B126E02046FFF7C0
:104030007AFE0646A069C77A46B1042E00D01CE07D
:1040400000BF07F0040000B9052616E007F00400E1
:1040500000B112E06569E87A00F0100008B90526A1
:104060000BE0A97EE87E41EA00212A7D687D42EAD4
:10407000002041EA0040A060D1E700BF3046BDE823
:10408000FC8170B504460D46607801232A4604F190
:104090003001FFF795FA08B1032070BD94F82E1295
:1040A00094F82F0241EA00204AF65521884201D0B7
:1040B0000220F2E794F86900010694F8680041EAEA
:1040C000004194F8670041EA002094F86610084324
:1040D00020F07F407E49884201D10020DDE794F83E
:1040E0008500010694F8840041EA004194F88300B9
:1040F00041EA002094F88210084320F07F40744980
:10410000884201D10020C8E70120C6E72DE9F74F1A
:1041100088B00898006801900198007830380790BE
:10412000079809280AD8019840783A2806D10198BA
:10413000801C019008990198086001E00020079018
:10414000079818B10B200BB0BDE8F08F61490798B4
:1041500051F82040099804600CB90C20F3E720784E
:1041600078B16078FFF729FA804608F0010040B97D
:104170000A9820B108F0040008B10A20E3E7002003
:10418000E1E700202070079860706078FFF708FA78
:10419000804608F0010008B10320D4E70A9820B156
:1041A00008F0040008B10A20CDE74FF0000B594693
:1041B0002046FFF766FF054600BF012D21D14FF0D5
:1041C000000ABAF1000F03D0AAF1010000F0FF0AC3
:1041D0004FF4DF7000EB0A1104F130000F1838794A
:1041E00078B1F87A0106B87A41EA0041787A41EA72
:1041F0000020397A40EA010B59462046FFF741FF7B
:104200000546032D01D101209DE70DB10D209AE750
:104210003B20015D94F83C0041EA0020B0F5007FAE
:1042200001D00D208FE74620015D94F8470041EA58
:104230000029B9F1000F0ED194F85700010694F847
:10424000560041EA004194F8550041EA002094F8F4
:10425000541040EA0109C4F81C904020065DE67045
:10426000012E03D0022E01D00D206CE709FB06F9C8
:104270003D20005D0646A07016B1701E304008B1AA
:104280000D2060E74120015D94F8420041EA0020E2
:104290002081207A00F00F0008B10D2053E7432061
:1042A000015D94F8440041EA002006900698D8B9D0
:1042B00094F85300010694F8520041EA00410BE0E3
:1042C000222A2B2C3A3B3C3D3E3F5B5D7C7F00002D
:1042D000464154005800002094F8510041EA002063
:1042E00094F85010084306903E20015D94F83F007A
:1042F00041EA00200290029808B90D2023E70298B5
:104300004844218900EB11100590DDE90501814247
:1043100001D20D2017E7DDE90510401AA178B0FBA6
:10432000F1F00490049808B90D200CE7012540F63F
:10433000F6710498884200D302254FF6F67104986E
:10434000884200D303250498801CA0610598584436
:10435000A062029858442062032D16D1208908B12A
:104360000D20F0E694F85F00010694F85E0041EA43
:10437000004194F85D0041EA002094F85C10084385
:104380006062A0698000039014E0208908B90D20C4
:10439000D9E6206A48446062022D02D1A06940003B
:1043A00007E0207E00F00100A16901EB410100EB74
:1043B00051000390E169039800F2FF10B1EB502F18
:1043C00001D20D20BFE64FF0FF3020610020E060F9
:1043D000032D5CD1607194F8601094F8610041EA9B
:1043E0000020584460616078012304F13001626963
:1043F000FFF7E6F8F0BB94F82E1294F82F0241EA8A
:1044000000204AF65521884241D13320005D010643
:104410003220005D41EA00413120005D41EA002088
:1044200094F830100843FE49884230D194F81702BE
:10443000010694F8160241EA004194F8150241EA97
:10444000002094F814120843F64988421FD194F8CA
:104450001F02010694F81E0241EA004194F81D0271
:1044600041EA002094F81C120843E06094F81B0213
:10447000010600E00BE094F81A0241EA004194F8CA
:10448000190241EA002094F81812084320612570AF
:10449000E5480088401C80B2E3490880E0800020A5
:1044A000E062207100BF4EE670B504460D4624B1AF
:1044B000207810B1E088A84201D0092070BD607852
:1044C000FFF77BF800F0010008B10320F6E70020B9
:1044D000F4E70246012A01DB0B207047D34850F86D
:1044E00022300BB10020187009B100200870CF48AD
:1044F00040F822100020F0E72DE9F7438AB0054686
:1045000016460020286006F01F0626F0010203A9C7
:104510000BA8FFF7FBFD0746CDF824D027B903A869
:104520000B99FFF75FFD0746089C0FB904B90627F2
:1045300006F01C00002858D04FB1042F03D103A867
:10454000FFF74AFC074646F00806089C09E0E07AB7
:1045500000F0110008B1072703E006F0040000B1E5
:104560000827002F40D106F0080000283CD0FFF7B4
:1045700078F8804684F80E804FEA1821E1734FEAFC
:10458000184121744FEA186161740020E0722077AD
:1045900000216177A177E177A17EE07E41EA0021E9
:1045A000227D607D42EA002041EA00490020A07699
:1045B0000021E17620756175012003990871B9F138
:1045C000000F11D00398D0F82C8049460398FFF7CC
:1045D00037FA074647B9A9F101000399C860414677
:1045E0000398FFF775F807460EE06FB9E07A00F020
:1045F000100008B1042707E006F0020020B1E07ABD
:1046000000F0010000B1072747B906F0080008B123
:1046100046F020060398C06AE8612C62F7B9AE71D3
:10462000A17EE07E41EA0021227D607D42EA0020F9
:1046300041EA00402861E07F0106A07F41EA004195
:10464000607F41EA0020217F0843E8600020A860E5
:10465000A861039828600398C088A88038460DB0E8
:10466000BDE8F0832DE9FF4F83B0044615469A4616
:10467000DDF810B00020CAF80000A1882068FFF71C
:1046800013FF0290029818B1029807B0BDE8F08FAE
:10469000A07900F0800008B10220F6E7A07900F0D0
:1046A000010008B90720F0E7D4E90210401A009091
:1046B0000098854200D9009DC0E02089C0F3080021
:1046C00000287DD120688078401EA16800EA512032
:1046D00000F0FF09B9F1000F1DD1A06810B92069E1
:1046E000019004E061692068FFF79DF8019001984E
:1046F000022805D2A07940F08000A0710220C4E712
:104700000198401C28B9A07940F08000A0710120D8
:10471000BBE70198606161692068FFF777F806469A
:104720002EB9A07940F08000A0710220ADE74E4480
:104730004FEA5528B8F1000F2DD009EB0800216889
:104740008978884203D920688078A0EB090808F0AE
:10475000FF032168487832465946FEF731FF28B1F9
:10476000A07940F08000A07101208EE7A07900F0D0
:10477000400068B1A069801B404509D2A169891B2E
:104780000BEB41204FF4007204F12401FEF76CFFA3
:104790004FEA48273EE0A069B04227D0A07900F058
:1047A0004000A0B121684878012304F12401A269E6
:1047B000FEF72DFF38B1A07940F08000A07100E035
:1047C00015E0012061E7A07920F04000A071216888
:1047D00048780123324604F12401FEF7F1FE28B1A6
:1047E000A07940F08000A07101204EE7A6612089E9
:1047F000C0F30800C0F50077AF4200D92F462089EA
:10480000C0F3080204F1240011183A465846FEF796
:104810002BFF00BFBB44A0683844A06008E0000044
:1048200052526141727241615C00002058000020C8
:10483000DAF800003844CAF80000ED1B002D7FF4C0
:104840003CAF002021E72DE9FF4F83B00446154619
:104850009B46049801900020CBF80000A1882068B6
:10486000FFF722FE0290029818B1029807B0BDE847
:10487000F08FA07900F0800008B10220F6E7A0795F
:1048800000F0020008B90720F0E7E0682844E1687A
:10489000884200D20025CDE02089C0F3080000281E
:1048A00077D120688078401EA16800EA512000F08E
:1048B000FF0ABAF1000F2AD1A06858B9D4F81080C5
:1048C000B8F1000F0BD100212068FFF7EDF880460A
:1048D000206104E061692068FFF7E6F88046B8F1DE
:1048E000000F00D1A9E0B8F1010F05D1A07940F087
:1048F0008000A0710220B9E708F1010028B9A07971
:1049000040F08000A0710120B0E7C4F81480A079C5
:1049100000F0400090B121684878012304F124019F
:10492000A269FEF774FE28B1A07940F08000A07162
:1049300001209BE7A07920F04000A0716169206808
:10494000FEF764FF06462EB9A07940F08000A07102
:1049500002208BE756444FEA5529B9F1000F2FD0BA
:104960000AEB090021688978884203D92068807899
:10497000A0EB0A0909F0FF03216848783246019943
:10498000FEF745FE30B1A07940F08000A071012013
:104990006CE72CE0A069801B48450ED2A069801B03
:1049A000019A02EB40214FF4007204F12400FEF75B
:1049B0005BFEA07920F04000A0714FEA49272DE06E
:1049C000A069B04212D0D4E9020188420ED2216817
:1049D00048780123324604F12401FEF7F1FD28B1A5
:1049E000A07940F08000A07101203FE7A6612089F6
:1049F000C0F30800C0F50077AF4200D92F462189E7
:104A0000C1F3080204F1240150183A460199FEF757
:104A10002BFEA07940F04000A07100BF01983844FF
:104A20000190A0683844A060DBF800003844CBF85F
:104A30000000ED1B002D7FF42FAF00BFD4E9020171
:104A4000884201D9A068E060A07940F02000A07100
:104A500000200BE72DE9F0410446A1882068FFF70C
:104A600023FD0746002F4FD1A07900F02000002839
:104A70004AD0A07900F0400078B12168487801233D
:104A800004F12401A269FEF7C2FD10B10120BDE8C6
:104A9000F081A07920F04000A071E1692068FEF764
:104AA00017FE0746002F2FD1256AE87A40F0200034
:104AB000E872207B2877A089010A6977E068010CF9
:104AC000A977E068010EE977207CA876208A010AA0
:104AD000E9762069000C28752069010E6975FEF7DA
:104AE000C0FD0646AE75310AE975310C2976310EE6
:104AF0006976A07920F02000A0710120216808715A
:104B00002068FEF71EFE07463846C0E770B504462B
:104B10002046FFF79FFF05460DB90020206028467C
:104B200070BD2DE9F04704460E46A1882068FFF7C6
:104B3000BBFC8246BAF1000F02D05046BDE8F087B8
:104B4000A07900F0800008B10220F7E7E068B042E9
:104B500004D2A07900F0020000B9E668D4F8089009
:104B60004FF00008C4F80880002E77D020688078C5
:104B70004702B9F1000F11D0701EB0FBF7F1A9F197
:104B80000100B0FBF7F0814208D3A9F10100791EC2
:104B90008843A060A068361A656918E02569ADB938
:104BA00000212068FEF780FF0546012D05D1A07980
:104BB00040F08000A0710220C0E7681C28B9A079ED
:104BC00040F08000A0710120B8E725616561002DEB
:104BD00044D029E0A07900F0020038B129462068CD
:104BE000FEF762FF054635B93E461FE029462068BC
:104BF000FEF719FE0546681C28B9A07940F0800030
:104C0000A07101209AE7012D03D920688069A8428C
:104C100005D8A07940F08000A07102208EE7656180
:104C2000A0683844A060F61BBE42D3D800BFA0687D
:104C30003044A060C6F3080068B129462068FEF73A
:104C4000E5FD8046B8F1000F06D1A07940F0800064
:104C5000A071022072E701E008EB56282089C0F31A
:104C6000080050B3A069404527D0A07900F040006B
:104C700090B121684878012304F12401A269FEF76C
:104C8000C6FC28B1A07940F08000A071012055E752
:104C9000A07920F04000A0712168487801234246A5
:104CA00004F12401FEF78CFC28B1A07940F08000CB
:104CB000A071012042E7C4F81880D4E902018842BB
:104CC00005D9A068E060A07940F02000A0715046AE
:104CD00034E733B583B004460022214604A8FFF729
:104CE00015FA05464DBBC4F818D020460499FFF7C5
:104CF00079F90546F5B9606998B16069C07A00F044
:104D0000100068B16069817EC07E41EA002160695F
:104D1000027D407D42EA002041EA0040A06000E0C0
:104D200005253DB92068C088A08000212046FEF7F7
:104D300020FF0546042D00D10525284605B030BDCD
:104D4000FEB504460E46A1882068FFF7ADFB054678
:104D500005BB2EB900212046FEF70BFF054619E0E2
:104D6000C4F818D02046FFF70CF80546042D02D1F0
:104D70000020206100256DB931462046FFF7E6F896
:104D800000212046FEF743FF0546042D02D10020F6
:104D9000206100252846FEBD064C074D06E0E06870
:104DA00040F0010394E8070098471034AC42F6D372
:104DB000FBF7C2F90C4E00082C4E0008014A0249CC
:104DC00000F013B8571E00083C00002002E008C89D
:104DD000121F08C1002AFAD170477047002001E075
:104DE00001C1121F002AFBD170472DE9F041164680
:104DF0000F460446002503E03946B047641C6D1C8D
:104E000020780028F8D12846BDE8F0812C4E000813
:104E10000000002060000000CC4D00088C4E00080F
:104E20006000002018250000DC4D00080000000094
:104E300000000000000000000000000000A24A0482
:104E4000000000000000000001020304060708093A
:104E50000000000000000000000000000000000052
:104E60000000000000000000000000000000000042
:104E700001020304010203040607080902040608EC
:0C4E800000000000000000000000000026
:0400000508000131BD
:00000001FF
